S1050000248056
S113001009800004C85D2280C95D2280C845082D7E
S1230020D51C0116158002160000132D0222865A228086582280882D0122865A2280012B1B
S1230040022B03480005000F53C0B11EF82A001AB11F4EC04EC04EC0B11EF82A011AB11F1C
S12300604EC04EC04EC0B11EF82A051AB11F4EC04EC04EC0035825800340DF47B147DC40CB
S1230080DC47D52B0000E72DCA29CA4B000000000000DF4FDC48DC4FB14F2580B145B14E06
S12300A0B15D5080000EDF47D9C0C9C05FC0001F001E86585680BBC0B5C0DF4F000E802D1F
S12300C0B41FAF2BB32BB14CB14FB145B14EB15D6780B21E86589D80B31E0F2A86589D80DA
S12300E01F2DB419B145B14EB15D7480B21E86588280B31E0F2A865882803F2DB429B14711
S1230100002DB480B41E0F2A86509880B4260000B145B14EB15D8A80B21E86588280B31E19
S12301200F2A865882803F2DB429B147002DB4803F2DB429B147012DB4800F2DB4280F1D19
S12301408658A3809880012DB413B145B14EB15DA780B21E86589D80B31E0F2A86589D8093
S12301603F2DB429B147002D000EB12B902DB119AF2BB32B000EF12DDC1F802DDE1F000E05
S1230180D82BA42DDA1F832DDB1F832DCD1FC94D000ED02BFE2DB81F012DE01FD42BFC2DD2
S12301A0C41FE42BD52BFF2DC51FE52B032DAE1F000E3F2D831F842BE72B8326DC80E72B38
S10501C0000E2B
S305000040704A
S903FFFFFE
